:020000020000FC
:100000000BC0FECFFDCFFCCF55C1FACF2BC155C1E0
:10001000F7CFF6CFF5CFF4CF0FED0DBFFF24C0E63D
:10002000D0E0F992C03EE9F70FE702BB02E001BB66
:1000300000EE08BB08E107BB05E003BF06E00EBD0C
:1000400002E409BF0FE110E012B909B908E90AB9E1
:1000500006E003B991E000E0F3D0EAE3F4E0D4D1A4
:100060007894E0E2F4E0D0D15DD13D91313608F0F2
:1000700030523032B4F3363409F44EC0323509F41C
:1000800037C0373409F41CC03B3409F481C03C3418
:1000900009F49EC03A3509F48DC0333509F457C0D0
:1000A000343509F456C0353509F460C03F3321F0CA
:1000B000E6E2F4E0A9D1D5CFE4E7F4E0A5D1D1CFD1
:1000C0004CD109F4F5CF03D008F029C014C0002E9C
:1000D000112E222E0A191B092C0910F0889408955C
:1000E0000A2D1B2D2C2D00191109220908940895A1
:1000F00034D109F4DDCF20916100021B10400CF4D3
:10010000B0CF1BBD0ABD1CD000E00DBD00E00CBD92
:10011000C398C49A95E05CC020D109F4C9CF20915E
:100120006000021B10400CF49CCF1BBD0ABD08D020
:1001300000E00DBD00E00CBDC39AC49893E048C038
:10014000A0926600B0926700C092680008955BD0EC
:1001500088CF03D109F4ACCF0093600020E0E1998F
:10016000FECF2EBB0DBBE29AE19A7BCFF6D009F40D
:100170009FCF0093610021E0E199FECF2EBB0DBB24
:10018000E29AE19A6ECF00E00DBD00E00CBD00C028
:100190000AE042D10DE040D10CB51DB52F2D102E37
:1001A0000ED100E239D1A8D009F05BCF0CB5101602
:1001B000D1F3F0CF00E00DBD00E00CBDF092660081
:1001C000F0926700F0926800AF2CBF2CCF2C00C0DB
:1001D0000AE022D10DE020D1F8940A2D1B2D2C2D00
:1001E0007894102EECD000E217D186D009F039CFE8
:1001F0001A14D9F3EFCFC398C49891E00895C39A25
:10020000C49A91E0089500E01BD00AE005D10DE00A
:1002100003D104E501D10DE3FFD02F2D1F2D009157
:100220006000CDD00DE0F8D00AE0F6D005E5F4D0BE
:100230000DE3F2D02F2D1F2D00916100C0D0089545
:1002400008D03EBB3395E09A0DB309931A95C9F7D0
:10025000089510E13327015010F0310FFCCFC0E6B4
:10026000D0E008950F930FB70F931F932F933F93F1
:100270004F932CB53DB500916600109167004091F9
:100280006800933029F0953039F0913009F00AC0B8
:10029000020F131F4F1D03C0021B130B4F09A02E8B
:1002A000B12EC42E4F913F912F911F910F910FBFEF
:1002B0000F911895C39AC49A18950F930FB72F935F
:1002C0002CB157981F930F93DF93CF93C9E6D0E0DB
:1002D0000881198113951F70101729F019831A9539
:1002E0001F70C10F2A83CF91DF910F911F912F9122
:1002F0000FBF0F91579A18951F93DF93CF93C9E6BD
:10030000D0E0F89418810981101739F0C10F0A81E3
:10031000C11B13951F70188398947894CF91DF9127
:100320001F910895ABE7B0E030E0E6DFF1F30C9306
:100330000D3019F4ABE7B0E06DC0083031F4303067
:10034000A1F368D011973A95F0CF003270F33331B2
:1003500061F360D011963395E8CFE8940027112718
:1003600022273D91303238F1E1F33D3211F46894A7
:100370003D913132B0F0305388F03A3078F449E1B1
:100380005AE00018069427951795079508F4050E6E
:100390004A95C1F7030F1F1D2F1DEACF089418942B
:1003A0000895119736F40095109520950F5F1F4F13
:1003B0002F4F88940895119788941894089550E2C7
:1003C00027FF07C00095109520950F1D1F1D2F1D9D
:1003D0005DE200240394332748E1000F111F221F20
:1003E000331F3A3010F03A5003954A95B1F7305D1B
:1003F0003F930F151F052F0569F7052F0DD00F919E
:100400000BD00A94E1F708950591002309F40895AB
:1004100003D0FACF90FF08955D9BFECF0CB90895ED
:100420000D0A50503E000D0A2074797065203F205F
:10043000666F722068656C702E000D0A0D0A506F91
:10044000776572506172746E6572202D2D20444361
:10045000204D6F746F7220436F6E74726F6C6C6599
:10046000722056312E3020205B3F3A68656C705DFB
:10047000200D0A000D0A0D0A4C202D206C697374A2
:1004800020706F730D0A5A202D207A65726F2070CC
:100490006F730D0A0D0A463C70756C73653E202D16
:1004A0002066776420636D640D0A523C70756C732E
:1004B000653E202D2072657620636D640D0A473CF1
:1004C000706F733E202D20676F746F20636D642002
:1004D0000D0A0D0A53202D2073686F7720542F5575
:1004E000202D206677642F72657620736C69707397
:1004F00065740D0A543C70756C73653E202D205454
:100500003D66776420736C6970207365740D0A55BD
:100510003C70756C73653E202D20553D72657620CC
:10052000736C6970207365740D0A3F202D20686517
:060530006C700D0A0000D2
:00000001FF
